:100000000C9434000C9451000C9451000C94510049
:100010000C9451000C9451000C9451000C9451001C
:100020000C9451000C9451000C9451000C9451000C
:100030000C9451000C9451000C9451000C945100FC
:100040000C9451000C9451000C947D000C945100C0
:100050000C9451000C9451000C9451000C945100DC
:100060000C9451000C94510011241FBECFEFD4E02A
:10007000DEBFCDBF11E0A0E0B1E0ECEFF1E002C0E7
:1000800005900D92A230B107D9F711E0A2E0B1E0DE
:1000900001C01D92A630B107E1F70E94BD000C948B
:1000A000FC000C9400008093C400E1ECF0E088E9CF
:1000B0008083808386E08093C20008959C0100972E
:1000C00099F0E5E2F0E040E45CE9808181608083C2
:1000D000CA010197F1F780818E7F8083CA01019761
:1000E000F1F72150304089F70895A3E0B1E0FD0118
:1000F0001192108212961C9208951F920F920FB6C1
:100100000F9211242F938F939F93AF93BF93EF93ED
:10011000FF9380910001909101012091C600E3E0DE
:10012000F1E0DF01A80FB91F2C938091000190919D
:100130000101E80FF91F8081813251F481E0809341
:10014000020181E090E0909301018093000109C0D9
:10015000809100019091010101969093010180939B
:100160000001FF91EF91BF91AF919F918F912F91DE
:100170000F900FBE0F901F901895EF92FF920F9364
:100180001F93CF93DF93789483E390E00E94530012
:100190008FEF84B915B8C4E0D1E00F2EF5E0EF2E53
:1001A000F1E0FF2EF02D05E210E08091020188239E
:1001B000E1F3109202018881833741F4F7018081D5
:1001C00090E00E945E000E947500EFCF8881843627
:1001D00061F7F7018081803319F0813351F405C054
:1001E000F80180818D7F808304C0F8018081826066
:0C01F00080830E947500D9CFF894FFCFE7
:0201FC00010000
:00000001FF
